:020000040800F2
:10000000101C0020C101000811230008F92200087B
:100010000D2300088D0B00082D3C00080000000097
:10002000000000000000000000000000D3010008F4
:10003000451D000800000000D7010008D901000894
:10004000DB010008DB010008DB010008DB01000820
:10005000DB010008DB010008DB010008DB01000810
:10006000611F000811200008DB010008DB01000807
:10007000DB010008DB010008DB010008DB010008F0
:10008000DB010008DB010008DB010008DB010008E0
:10009000C90C0008DB010008DB010008DB010008D7
:1000A000DB010008DB010008DB010008DB010008C0
:1000B000ED2E00082D2F000829300008DB01000874
:1000C000DB010008DB010008DB010008DB010008A0
:1000D000DB010008DB010008DB010008DB01000890
:1000E000DB010008DB010008DB010008DB01000880
:1000F000DB010008DB010008DB010008DB01000870
:10010000DB010008DB010008DB010008DB0100085F
:10011000DB01000829390008DB010008DB010008C9
:10012000DB010008DB010008DB010008DB0100083F
:10013000DB010008DB010008DB010008DB0100082F
:1001400019110008DB010008DB010008DB010008D1
:1001500029190008DB010008DB010008DB010008A9
:10016000DB010008DB010008DB010008DB010008FF
:10017000DB010008DB010008DB010008DB010008EF
:10018000DB010008DB010008DB010008DB010008DF
:10019000DB010008DB010008DB010008DB010008CF
:1001A0000000000000000000DB010008DFF80CD0B8
:1001B00000F02EFB0048004749450008101C0020B5
:1001C0000648804706480047FEE7FEE7FEE7FEE7F1
:1001D000FEE7FEE7FEE7FEE7FEE7FEE7852E000806
:1001E000AD010008D2B201E000F8012B491EFBD29C
:1001F00070470022F6E710B513460A460446194632
:10020000FFF7F0FF204610BD2DE9FE4F804681EA42
:100210000300C00F0C46009021F0004123F0004580
:10022000B8EB0200A94105D24046214690461C4643
:100230000B46024623F00040104347D0270DC7F37A
:100240000A00C3F30A510290401A019040286BDA69
:10025000C3F3130040F4801B0098924620B10023A2
:10026000D2EB030A63EB0B0B01985946C0F1400235
:10027000504600F007FA06460D4650465946019A88
:1002800000F01FFA10EB08006141002487EA1152C8
:1002900084EAE7731A4340D0009A62B3019A012AB4
:1002A0004FEA075215DC001B61EB02014FF00042E0
:1002B00002EA0752CDE90042001C41F580113246A6
:1002C0002B4600F056FA03B0BDE8F08F40462146B9
:1002D000F9E7001B61EB0201001C41F580130018D7
:1002E0005B412018A2F5001747EB030140EAD570E7
:1002F000B6196D4111E06D084FEA360645EAC07542
:100300004FEA0752001B61EB0201001C41F580110E
:1003100049084FEA30000019514132462B4603B0DC
:10032000BDE8F04F00F016BA00980122400000230B
:10033000D0EB020263EBE073009821464FEAE074D1
:10034000B8EB000061EB0401E9E783F000435BE7F1
:1003500081F0004158E72DE9FE4F81EA030404F0E3
:10036000004421F0004100944FF0000B23F00043C3
:1003700050EA01045ED052EA03045BD0C3F30A548E
:10038000C1F30A552C44A4F2F3340194A0FB0254A7
:10039000C1F3130141F48011C3F3130343F4801339
:1003A00001FB024400FB034E840A970A44EA81548D
:1003B00047EA8357A4FB076802958D0A05FB07856A
:1003C0004FEA932C04FB0C542705029D4FEA065874
:1003D00047EA1637B5EB08056EEB070C870E920E51
:1003E00047EA811742EA8312A7FB0201B6EB0B0131
:1003F00064EB00042B0D43EA0C335E1844EB1C50F5
:10040000DA465146E7FB0201C5F313044FEA0B330A
:1004100043EA14534FEA0432019C43EA0603A4F171
:100420000C040294009CCDE900B400F0A2F903B0E2
:10043000BDE8F08F00200146F9E72DE9F04D81EA93
:10044000030404F0004B21F0004514464FF0000A6D
:1004500023F0004150EA050220D054EA01021DD0E9
:10046000C5F30A570246C5F31303C1F31300C1F3E2
:100470000A5640F4801543F48013A7EB0608101BBE
:10048000D64608F2FD3873EB050002D308F10108E7
:1004900001E092185B41B8F1000F03DA0020014639
:1004A000BDE8F08D00204FF48011064684460EE032
:1004B000171B73EB050705D3121B63EB05030643FC
:1004C0004CEA010C49084FEA300092185B4150EAAF
:1004D0000107EDD152EA030012D082EA040083EA58
:1004E0000501084305D0101BAB4106D201220023B1
:1004F00006E000224FF0004302E06FF001025310CB
:100500001AEB06004CEB085110EB0A0041EB0B0113
:10051000BDE8F04D00F01EB90EB5C10F80EAE070E5
:100520000844CA07002140F233438DE80E000A4612
:100530000B4600F01EF903B000BD0EB540F233418A
:1005400002910021CDE900110A460B4600F011F995
:1005500003B000BD70B5C1F30A5201F0004500249C
:10056000C1F3130140F2FF3341F480119A4201DAE2
:10057000002070BD40F233439A42A2F2334203DCC2
:10058000524200F08EF800E090402C43F1D04042FF
:1005900070BDC1F30A5210B5C1F3130140F2FF332D
:1005A00041F480119A4201DA002010BD40F2334339
:1005B0009A42A2F2334203DC524200F072F810BDBC
:1005C000904010BD00F0004230F000400AD0C10D54
:1005D00001F56071C0F3160042EA0151C2084007FC
:1005E00011437047002001467047000030B5041EDB
:1005F00071F1000404DB4FF00044404264EB010160
:10060000141E73F1000405DB1C464FF000435242F8
:1006100063EB04038B4208BF824230BD30B5041E39
:1006200071F1000404DB4FF00044404264EB01012F
:10063000141E73F1000405DB1C464FF000435242C8
:1006400063EB0403994208BF904230BD01F00043C0
:1006500030B421F0004150EA010206D00A0DA2F5A3
:100660006072C1F31301002A02DC30BC0020704725
:10067000440F44EAC104C100E01830BC00EBC25092
:1006800000F031B8202A04DB203A00FA02F1002001
:1006900070479140C2F1200320FA03F319439040C0
:1006A0007047202A04DB203A21FA02F0002170472B
:1006B00021FA02F3D040C2F12002914008431946CA
:1006C0007047202A06DBCB17203A41FA02F043EAB2
:1006D000E07306E041FA02F3D040C2F120029140FB
:1006E0000843194670470029A8BF7047401C4900BD
:1006F00008BF20F00100704710B4B0FA80FC00FA87
:100700000CF050EA010404BF10BC704749B1CCF1B1
:10071000200421FA04F411FA0CF118BF012121433D
:100720000843A3EB0C01CB1D4FEA00614FEA1020F8
:1007300042BF002010BC704700EBC350104400299A
:10074000A4BF10BC7047401C490008BF20F0010046
:1007500010BC704710B5141E73F1000408DA401C79
:1007600041F1000192185B411A4301D120F00100D0
:1007700010BD2DE9F04D92469B4611B1B1FA81F2C0
:1007800002E0B0FA80F220329046FFF77BFF044689
:100790000F4640EA0A0041EA0B0153465A46084315
:1007A00013D0114653EA010019D0C8F14002504657
:1007B000FFF777FF05460E46504659464246FFF77B
:1007C00061FF084305D0012004E020463946BDE81A
:1007D000F08D0020054346EAE0762C4337430A9823
:1007E0006305E40AA0EB08000022FD0A44EA47542E
:1007F0000A3002D500200146E9E7010510196941D8
:10080000DDE9084500196941BDE8F04DA2E70000A7
:10081000064C074D06E0E06840F0010394E807004D
:1008200098471034AC42F6D3FFF7C4FC1C530008C1
:100830003C53000870B58C1810F8015B15F00703E5
:1008400001D110F8013B2A1106D110F8012B03E069
:1008500010F8016B01F8016B5B1EF9D12B0705D471
:100860000023521E0DD401F8013BFAE710F8013BBA
:10087000CB1A921C03E013F8015B01F8015B521ED6
:10088000F9D5A142D8D3002070BD0021C16001611B
:1008900041620160816041618161C16101627047B3
:1008A00000B50C48FFF7F1FF0B48FFF7EEFF0B48D0
:1008B000FFF7EBFF0A48FFF7E8FF0A48FFF7E5FFFD
:1008C0000948FFF7E2FF0948FFF7DFFF0848FFF795
:1008D000DCFF00BDF00200207C03002008040020A3
:1008E0009404002020050020AC05002038060020DC
:1008F0006808002010B5082302220C214FF4B470C0
:1009000002F006FA00BF9FED500A504880ED030A3E
:100910009FED4F0A80ED040A9FED4E0A80ED050A17
:10092000B0EE040A80ED090A9FED4B0A80ED0A0A39
:100930009FED480A80ED0B0A9FED480A80ED0C0AF6
:100940009FED440A80ED0D0A9FED450A80ED0E0AE9
:10095000B1EE000A80ED0F0A9FED420A80ED100A09
:100960009FED410A80ED110AB1EE000A80ED150AF3
:100970009FED3C0A80ED160A9FED3B0A80ED170AB9
:100980009FED360A80ED120A9FED320A80ED130AC0
:100990009FED330A80ED140AB2EE000A80ED1B0AC7
:1009A0009FED320A80ED1C0AB6EE000A80ED1D0AAA
:1009B0009FED2F0A80ED180A9FED260A80ED190A97
:1009C0009FED250A80ED1A0A9FED2A0A80ED210A83
:1009D0009FED290A80ED220AB5EE000A80ED230A78
:1009E00000BF01F0DDFC4FF4A06001F0CFFCB420AB
:1009F00003F0C2FC03F026FE03F01CFE01F024FA13
:100A000003F06AFD03F02EFD00F0C2F800F0E6FAF4
:100A100001F0BAF903F09CFD03F024F9FFF740FF61
:100A200002F0BAFE03F078FD144801F063FD42F2D3
:100A30002731092002F0CEFA0121114802F049FBCA
:100A400002F0C7FC10BD0000333343400C0200200D
:100A5000713D8A3E00000000CDCC4C3DAE47613E6A
:100A60009A99193ECDCC4C3FCDCCCC3F9A99993F29
:100A7000B81E853D33331340713D0A3F48010020C5
:100A80000004004070EE201A9FED392A41EE021A50
:100A90003848C0ED011A70EE601A9FED352A41EE1C
:100AA000421AC0ED051A70EE601A9FED312A41EE30
:100AB000021AC0ED091A70EE201A9FED2D2A41EEA0
:100AC000421AC0ED0D1AD0ED011A9FED2B2A61EEEE
:100AD000821AC0ED021AD0ED051A9FED272A61EEA9
:100AE000821AC0ED061AD0ED091A9FED232A61EE95
:100AF000821AC0ED0A1AD0ED0D1A9FED1F2A61EE81
:100B0000821AC0ED0E1AD0ED021AB3EE032A61EE7E
:100B1000821AFDEEE11A1948C0ED091A1548D0ED08
:100B2000061AB3EE032A61EE821AFDEEE11A11EE07
:100B3000900A4042124948620E48D0ED0A1AB3EEBC
:100B4000032A61EE821AFDEEE11A0E48C0ED091A81
:100B50000848D0ED0E1AB3EE032A61EE821AFDEEBC
:100B6000E11A11EE900A40420749486270470000BE
:100B700000007042580100204276F43F9C020020A1
:100B800028030020B40300204004002000BFFEE73B
:100B900010B500F029F800F053F800F003F800F069
:100BA0007DF810BD1FB500208DF80A008DF80B00F0
:100BB00001208DF80C000020ADF80000ADF8020017
:100BC000ADF80400ADF80600ADF8080001208DF87E
:100BD0000D00684600F026FC01220221014800F0C9
:100BE000A5FC1FBD006400401CB50121082001F0D8
:100BF00031FC022000908DF8040003208DF80500E0
:100C000000208DF806008DF8070069460B4801F0BA
:100C100069FA0120009002208DF804006946074817
:100C200001F060FA09220021044801F0A3FA092228
:100C30000121024801F09EFA1CBD0000000C024098
:100C40000EB501214FF0C06001F014FC124800F015
:100C5000CDFB684600F075FD00208DF806000120F0
:100C60008DF8070000208DF808008DF809008DF838
:100C70000A008DF80B008DF802008DF803000320A8
:100C80008DF804008DF805000520ADF800006946D8
:100C9000014800F054FC0EBD0064004008B54FF45C
:100CA000C06001F073FB14208DF8000001208DF866
:100CB000010000208DF8020001208DF80300684635
:100CC00001F028FB08BD000070B586B001AA002124
:100CD000544800F0BEFC9DF81000534908709DF880
:100CE0000F004870084604889DF8120008709DF8AF
:100CF000110048700846B0F900509DF814109DF896
:100D0000130041EA002006B20198A0F500700828FF
:100D10007ED2DFE800F035040B121920272E33466F
:100D20002A462146414803F0C9FC78E033462A466A
:100D300021463F4803F0C2FC71E033462A46214673
:100D40003C4803F0BBFC6AE033462A4621463A4859
:100D500003F0B4FC63E033462A462146374803F0EB
:100D6000ADFC5CE033462A462146354803F0A6FC3C
:100D700055E033462A462146324803F09FFC4EE0B8
:100D80009DF810009DF80F1040EA01202E490860E0
:100D90009DF812109DF8110041EA00202A49486090
:100DA0009DF814109DF8130041EA00202649886040
:100DB0009DF816109DF8150041EA00202249C860F0
:100DC00008460068B0F5804F04DD08460068A0F5CD
:100DD000803008601C484068B0F5804F05DD1A4837
:100DE0004068A0F580301849486017488068B0F521
:100DF000804F05DD14488068A0F580301249886076
:100E00001148C068B0F5804F07DD0F48C06800E0AA
:100E100004E0A0F580300C49C86000E000BF00BFCE
:100E200006B070BD006400402C0000209C02002031
:100E300028030020B403002040040020CC0400203C
:100E400058050020E4050020D00A002070B586B0C7
:100E5000064600244FF400700190002002908DF8A7
:100E60000C008DF80D0008208DF80E0000BF05E085
:100E7000315D0DF10F000155601C84B2082CF7DBC9
:100E800001A90D4800F06DFC0546002401E0601C3E
:100E900084B22946084800F0F7FC18B940F6FF7004
:100EA0008442F4DB40F6FF70844202DB012006B08E
:100EB00070BD0020FBE70000006400402DE9F04118
:100EC00086B00746002440F2FF10019000200290F7
:100ED0008DF80C008DF80D0008208DF80E0000BF75
:100EE00005E0395D0DF10F000155601C84B2082C3E
:100EF000F7DB01A9134800F034FC0546002608E0A2
:100F00000DF10F0010F8068041460F4802F090FEE8
:100F1000761C082EF4DB002401E0601C84B2294614
:100F2000084800F0B1FC18B940F6FF708442F4DBC9
:100F300040F6FF70844203DB012006B0BDE8F0817B
:100F40000020FAE700640040004400402DE9F04131
:100F500086B00646002440F2FF1001900020029067
:100F60008DF80C008DF80D0008208DF80E0000BFE4
:100F700005E0315D0DF10F000155601C84B2082CB5
:100F8000F7DB002507E00DF10F00475D39461148FA
:100F900002F04EFE6D1C082DF5DB01A90E4800F095
:100FA000E0FB8046002401E0601C84B241460A4810
:100FB00000F06AFC18B940F6FF708442F4DB40F69A
:100FC000FF70844203DB012006B0BDE8F081002001
:100FD000FAE70000004400400064004010B500F053
:100FE0002BF800F057F800F003F800F081F810BD7E
:100FF0001FB50E208DF80A0000208DF80B0001208F
:101000008DF80C000020ADF80000ADF80200ADF83E
:101010000400ADF80600ADF8080001208DF80D00C1
:10102000684600F0FFF901220221024800F07EFA32
:101030001FBD0000006800401CB50121022001F026
:1010400009FA4FF40050009002208DF804000320AC
:101050008DF8050000208DF806008DF80700694620
:101060000B4801F03FF84FF48050009002208DF8BB
:1010700004006946064801F035F809220C210448AD
:1010800001F078F809220D21014801F073F81CBD28
:10109000000402400EB50121480601F0EBF91348A7
:1010A00000F0A4F9684600F04CFB00208DF8060023
:1010B00001208DF8070000208DF808008DF8090048
:1010C0008DF80A008DF80B008DF802008DF80300F2
:1010D00003208DF804008DF805000520ADF8000010
:1010E0006946024800F02BFA0EBD0000006800407F
:1010F00008B54FF4C06001F049F940208DF80000B8
:1011000001208DF801008DF802008DF8030068467B
:1011100001F000F908BD000070B586B001AA0021F9
:10112000544800F096FA9DF81000534908709DF855
:101130000F004870084604889DF8120008709DF85A
:10114000110048700846B0F900509DF814109DF841
:10115000130041EA002006B20198A0F500700828AB
:101160007ED2DFE800F035040B121920272E33461B
:101170002A462146414803F0A1FA78E033462A4640
:1011800021463F4803F09AFA71E033462A46214649
:101190003C4803F093FA6AE033462A4621463A482F
:1011A00003F08CFA63E033462A462146374803F0C1
:1011B00085FA5CE033462A462146354803F07EFA3C
:1011C00055E033462A462146324803F077FA4EE08E
:1011D0009DF810009DF80F1040EA01202E4908608C
:1011E0009DF812109DF8110041EA00202A4948603C
:1011F0009DF814109DF8130041EA002026498860EC
:101200009DF816109DF8150041EA00202249C8609B
:1012100008460068B0F5804F04DD08460068A0F578
:10122000803008601C484068B0F5804F05DD1A48E2
:101230004068A0F580301849486017488068B0F5CC
:10124000804F05DD14488068A0F580301249886021
:101250001148C068B0F5804F07DD0F48C06800E056
:1012600004E0A0F580300C49C86000E000BF00BF7A
:1012700006B070BD006800402C000020A0080020CF
:101280002C090020B8090020B40300201408002015
:1012900058050020E4050020D00A002070B586B073
:1012A000064600244FF400700190002002908DF853
:1012B0000C008DF80D0008208DF80E0000BF05E031
:1012C000315D0DF10F000155601C84B2082CF7DB75
:1012D00001A90D4800F045FA0546002401E0601C14
:1012E00084B22946084800F0CFFA18B940F6FF70DA
:1012F0008442F4DB40F6FF70844202DB012006B03A
:1013000070BD0020FBE700000068004070B586B0AB
:10131000064600244FF400700190002002908DF8E2
:101320000C008DF80D0008208DF80E0000BF05E0C0
:10133000315D0DF10F000155601C84B2082CF7DB04
:1013400001A90D4800F00DFA0546002401E0601CDB
:1013500084B22946084800F097FA18B940F6FF70A1
:101360008442F4DB40F6FF70844202DB012006B0C9
:1013700070BD0020FBE700000068004070B586B03B
:101380000646002440F2FF100190002002908DF8E4
:101390000C008DF80D0008208DF80E0000BF05E050
:1013A000315D0DF10F000155601C84B2082CF7DB94
:1013B00001A90D4800F0D5F90546002401E0601CA4
:1013C00084B22946084800F05FFA18B940F6FF7069
:1013D0008442F4DB40F6FF70844202DB012006B059
:1013E00070BD0020FBE700000068004010B5044617
:1013F0000B48844209D10121480601F04BF8002135
:101400004FF0007001F046F808E00121880601F075
:1014100041F800214FF0806001F03CF810BD000061
:101420000064004010B50021837A012202FA03F122
:101430003D4A126842F001023B4B1A603A4A1C32A4
:1014400012688A43384B1C331A60027BCAB9364A89
:101450000C3212688A43344B0C331A604288C388BA
:1014600042EA0343304A4032847A42F834300288F8
:10147000838842EA03432C4A4032847A02EBC40256
:101480005360027B012A19D1274A0C3212680A43A1
:10149000254B0C331A604288038842EA0343224AF0
:1014A0004032847A42F83430C288838842EA034367
:1014B0001D4A4032847A02EBC4025360C27A3AB9C0
:1014C000194A121D12688A43174B1B1D1A6006E049
:1014D000154A121D12680A43134B1B1D1A6002891C
:1014E00032B9114A143212688A430F4B14331A600E
:1014F0000289012A06D10C4A143212680A430A4BA7
:1015000014331A60427B012A06D1074A1C32126842
:101510000A43054B1C331A60034A126822F0010289
:10152000014B1A6010BD0000006600401AB143690B
:101530000B43436102E043698B434361704730B51D
:10154000024600200023146824F00204146014688A
:1015500044F00104146000E05B1C546804F00104D2
:101560001CB94FF6FF74A342F6D1546804F001048D
:101570000CB900206CE08C79012C04D1146844F083
:101580008004146003E0146824F080041460CC79B3
:10159000012C04D1146844F04004146003E0146882
:1015A00024F0400414600C7A012C04D1146844F037
:1015B0002004146003E0146824F0200414604C7AC2
:1015C000012C04D1146844F01004146003E0146882
:1015D00024F0100414608C7A012C04D1146844F0B7
:1015E0000804146003E0146824F008041460CC7A42
:1015F000012C04D1146844F00404146003E014685E
:1016000024F0040414608C78A407CD7844EA0564BF
:101610000D7944EA05444D7944EA05540D886D1E60
:101620002C43D461146824F001041460002300E00A
:101630005B1C546804F001041CB14FF6FF74A34214
:10164000F6D1546804F001040CB1002000E0012040
:1016500030BD10B500F5D87303EB01131B6803F020
:1016600004031372137A53B900F5D87303EB011313
:101670001B6840F2FF7404EA5353136009E000F55D
:10168000D87303EB01131B686FF0604404EAD303C3
:10169000536000F5D87303EB01131B6803F00203DA
:1016A000537200F5D87303EB01135B6803F00F036B
:1016B000937200F5D87303EB01135B681B0AD374B4
:1016C00000F5D87303EB01139B68D37200F5D87350
:1016D00003EB01139B681C0A147300F5D87303EB2A
:1016E00001139B681C0C547300F5D87303EB0113B2
:1016F0009B681B0E937300F5D87303EB0113DB6833
:10170000D37300F5D87303EB0113DB681C0A147460
:1017100000F5D87303EB0113DB681C0C547400F55F
:10172000D87303EB0113DB681B0E937421B9C368F4
:1017300043F02003C36003E0036943F02003036127
:1017400010BD00218171C171017241728172C1723B
:101750008170C17003210171022141710121018059
:10176000704710B502460020936803F08063B3F120
:10177000806F00D110E0936803F00063B3F1006F55
:1017800001D1012008E0936803F08053B3F1805F3A
:1017900001D1022000E00420042874D002F5C073B7
:1017A00003EB00131B6803F0010402F5C07303EBA5
:1017B00000131C600B7A7BB94B7A0C8843EA4453C4
:1017C00002F5C07404EB00142468234302F5C074CE
:1017D00004EB0014236010E00B7A4C6843EAC40366
:1017E0004C7A234302F5C07404EB001424682343AD
:1017F00002F5C07404EB001423608B7A03F00F032E
:101800008B7202F5C07303EB00135B6823F00F04C7
:1018100002F5C07303EB00135C6002F5C07303EBC9
:1018200000135B688C7A234302F5C07404EB001448
:1018300063608B7B1C064B7B44EA03440B7B44EACE
:101840000323CC7A234302F5C07404EB0014A36095
:101850008B7C1C064B7C44EA03440B7C44EA032348
:10186000CC7B234302F5C07404EB0014E36002F563
:10187000C07303EB00131B6843F0010402F5C0734F
:1018800003EB00131C6010BD10B50246002321B10C
:10189000012907D002290FD109E090681D4C00EA08
:1018A00004030BE090681C4C00EA040306E0906817
:1018B0001A4C00EA040301E0002300BF00BF184CEB
:1018C000181BA34216D007DC83B16FF08060184468
:1018D00070B1022818D111E0B0F5007F10D0114C82
:1018E000204448B1B0F5003F0ED10BE002230DE0DB
:1018F00000230BE0002309E0002307E0012305E0BB
:10190000012303E0012301E0002300BF00BFD8B2A0
:1019100010BD0000030000040003000800000310D5
:10192000000100080001FFF710B54A494A4800F0DD
:101930008DF900287ED04949474800F097F845497D
:10194000454800F0ADF8464800784549497840EAF6
:101950000120C0F30A004349088041484078C01084
:101960003F49897840EA4110C0F30A003D49488068
:101970003B48807880113A49C97840EA810038496B
:10198000097940EA8120C0F30A003649888034484A
:10199000007940103249497940EAC110C0F30A0089
:1019A0003049C8802E4840790011800808722C48C0
:1019B0004079C0F3011048722948007C2849497CCD
:1019C00040EA0120C0F30A00264948812448807972
:1019D0002349C97940EA012000B222498881204880
:1019E000007A1F49497A40EA012001B21D48C181AD
:1019F0001B48807A1A49C97A40EA012001B2194885
:101A000001821748017B174881741548417B1548AE
:101A1000C1741348807B1249C97B40EA01201149F7
:101A2000888208460088104908800E48408848800F
:101A30000C4800E00DE0808888800A48C088C88093
:101A40000848007A08720748407A48720548408979
:101A5000488110BD008800208864024000080020F2
:101A6000F00B0020260100203C0100200246094B1B
:101A70009A4201D2084801E00648103801F00053AC
:101A80001BB1064B0B40C36002E0044B0B4083606C
:101A90007047000010640240006002407D0F7D0F1F
:101AA0000246094B9A4201D2084801E00648103824
:101AB00001F000531BB1064B0B40C36002E0044B26
:101AC0000B408360704700001064024000600240D9
:101AD0007D0F7D0F21B1026842F00102026003E038
:101AE000026822F00102026070470000016821F0E4
:101AF000010101600021016041608160C1600161FC
:101B0000212141614A49884204D13D21484A103A85
:101B100091608CE046491831884205D14FF47461D8
:101B2000434A103A916082E041493031884205D100
:101B30004FF474113E4A103A916078E03C494831C4
:101B4000884205D14FF07461394A103A91606EE0D5
:101B500037496031884204D13649354A103AD1605C
:101B600065E033497831884204D13349304A103A2C
:101B7000D1605CE02E499031884204D12F492C4A33
:101B8000103AD16053E02A49A831884205D14FF07C
:101B90003D51274A103AD16049E02949884204D191
:101BA0003D21274A083A116041E025491831884211
:101BB00005D14FF47461224A083A116037E0204998
:101BC0003031884205D14FF474111D4A083A116032
:101BD0002DE01B494831884205D14FF07461184A05
:101BE000083A116023E016496031884204D1114956
:101BF000134A121F11601AE011497831884204D14A
:101C00000D490F4A121F116011E00D4990318842B1
:101C100004D10A490A4A121F116008E00849A83194
:101C2000884204D14FF03D51054A121F11607047A0
:101C3000106002403D000020400F002000003D20C9
:101C4000106402400146486880B2704770B5024691
:101C5000002000240025124EB24201D2114B01E0B7
:101C60000F4B103B104E0E4036B11E2606EAD12413
:101C7000166806EA040502E0566906F0800501F0E0
:101C800000560EB15C6800E01C68084E344004EA5F
:101C9000010616B10DB1012000E0002070BD00006A
:101CA00010640240006002403C0F3C0F7D0F7D0F2E
:101CB00010B501F080034BB122B1436943F08003BA
:101CC000436103E0436923F08003436180290BD023
:101CD0002AB1036801F01E042343036004E0036893
:101CE00001F01E04A343036010BD000010B50022E4
:101CF0000268134B1A40CC680B6823434C6923439A
:101D00008C692343CC6923430C6A23434C6A2343E5
:101D10008C6A23434C6B23438C6B23431A4302602E
:101D2000426922F00702D1E90B3423431A4342618E
:101D30000B6943604B6883608B68C36010BD000013
:101D40003F801CF07047000010B502F0A3FB044672
:101D50007CB10B48006801280BD10A48006808B91B
:101D6000012000E0002007490860002004490860C5
:101D700005E002F08FFB10B901200149086010BD99
:101D8000A40000209402434200B587B0012108203E
:101D900000F060FB0121480400F06CFB00208DF88E
:101DA0001A0001208DF81B0002208DF819008DF813
:101DB00018002020059005A9214800F093F9022081
:101DC0008DF818004020059005A91D4800F08AF9FB
:101DD000072206211A4800F0CDF9072205211848EC
:101DE00000F0C8F94FF4E13001900020ADF8080090
:101DF000ADF80A00ADF80C00ADF810000C20ADF8FD
:101E00000E0001A90F4801F0A3FE01210D4801F0C9
:101E1000B5FD012240F225510A4801F074FE26204A
:101E20008DF8000000208DF8010001208DF80200DF
:101E30008DF80300684600F06DFA07B000BD0000A1
:101E4000000C02400044004000B58FB001213E4824
:101E500000F000FB0121102000F02CFB07221146AE
:101E60003A4800F087F980200D9002208DF8380064
:101E700000208DF83A0003208DF8390000208DF8FD
:101E80003B000DA9314800F02DF9314801F08CFDDF
:101E9000304809900020ADF82800ADF82A004FF432
:101EA0008060ADF82C000420ADF82E000020ADF8C5
:101EB000300009A9264801F04BFE0121244801F019
:101EC0005DFD01224021224801F064FD44208DF88F
:101ED000380001208DF839008DF83A008DF83B006C
:101EE0000EA800F017FA1C48FFF700FE4FF0006044
:101EF00000901748001D01901848029000200390A0
:101F000012200490002005904FF48060069000207D
:101F1000079008904FF4807009904FF440300A9079
:101F200000200B900C900D900E9069460A48FFF728
:101F3000DDFE012210210848FFF7BAFE0121064804
:101F4000FFF7C8FD0FB000BD0200400000040240D2
:101F500000100140A086010088640240F00B0020C0
:101F600010B5042000F0B2F8002849D02548D0F878
:101F70008000B8B92348D0F8800098B900212248E1
:101F8000A0F89E10A0F8A2101E48D0F88000401CB7
:101F90001C49C1F880001D48D0F88000401C1B4936
:101FA000C1F880001748D0F88000012825D11548D5
:101FB000D0F88000012820D11248D0F88400401CBD
:101FC0001049C1F884001148D0F88400401C0F4922
:101FD000C1F884000B48D0F88400B0F5967F0CD18E
:101FE0000846D0F88400B0F5967F06D10020054958
:101FF000C1F880000549C1F88000042000F060F8B5
:1020000010BD00007006002058010020FC060020D2
:1020100010B5042000F05AF8002849D02548D0F81F
:102020008000B8B92348D0F8800098B90021224830
:10203000A0F89E10A0F8A2101E48D0F88000401C06
:102040001C49C1F880001D48D0F88000401C1B4985
:10205000C1F880001748D0F88000012825D1154824
:10206000D0F88000012820D11248D0F88400401C0C
:102070001049C1F884001148D0F88400401C0F4971
:10208000C1F884000B48D0F88400B0F5967F0CD1DD
:102090000846D0F88400B0F5967F06D100200549A7
:1020A000C1F880000549C1F88000042000F008F85C
:1020B00010BD00007006002058010020FC06002022
:1020C0000149086070470000143C014001460020AF
:1020D000034A12680A400AB1012000E0002070475C
:1020E000143C0140F0B50A4600210023002400BF43
:1020F0003DE0012505FA01F3156805EA03049C4259
:1021000034D105684F000326BE40B54305601579FC
:102110004E00B5400668354305601579012D02D0A3
:102120001579022D16D185684F000326BE40B543B0
:10213000856055794E00B5408668354385604568B1
:1021400001268E40B5434560456896798E40B6B20B
:1021500035434560C5684F000326BE40B543C560A2
:10216000D5794E00B540C6683543C560491C102975
:10217000BFD3F0BDF0B5002300244D07ED0E02FAE9
:1021800005F3CE1000F1200555F826504E07F70E46
:102190000F26BE40B543CF1000F1200646F8275069
:1021A000CE1000F1200555F8265045EA0304CE1064
:1021B00000F1200545F82640F0BD418370470183BA
:1021C00070470000454890ED080AB1EE400AF3EE72
:1021D000030A80EE201A424880ED041A414890ED2F
:1021E000080AF3EE030A80EE201A3D4880ED081A33
:1021F0003D4890ED080AF3EE030A80EE201A3848B5
:1022000080ED0C1A394890ED080AB1EE400AF3EE61
:10221000030A80EE201A324880ED101A90ED040A6D
:10222000DFED330A20EE200A80ED030A90ED080A64
:10223000DFED2F0A20EE200A80ED070A90ED0C0A50
:10224000DFED2B0A20EE200A80ED0B0A90ED100A3C
:10225000DFED270A20EE200A80ED0F0A90ED030A39
:10226000D0ED070A30EE600AD0ED0B0A30EE600ABE
:10227000D0ED0F0A30EE200ADFED1E0A80EE201AA4
:1022800080ED161A90ED030AB1EE400AD0ED070A70
:1022900030EE200AD0ED0B0A30EE600AD0ED0F0AC6
:1022A00030EE200AF1EE000A80EE201A80ED141ABA
:1022B00090ED030AD0ED070A30EE200AD0ED0B0AAC
:1022C00030EE200AD0ED0F0A30EE200AF1EE000ABF
:1022D00080EE201A80ED151A704700009C02002045
:1022E0005801002028030020B403002040040020EF
:1022F000960A063F0000704300BFFEE74A0A5202FA
:102300000243014B1A60704708ED00E000BFFEE792
:102310007047000070B5002100230F22C4781CB361
:10232000174C246804F4E064C4F5E064C4F30721A6
:10233000C1F10404E3B20A4144789C40E1B28478DC
:10234000144021430C07210E0E4C0578615504788A
:1023500004F01F050124AC4005786D11AD0005F1B6
:10236000E025C5F8004109E0047804F01F050124C8
:10237000AC40054D0678761145F8264070BD00004A
:102380000CED00E000E400E080E100E002490143E0
:10239000024A1160704700000000FA050CED00E0F1
:1023A0001CB50121084600F055F80121042000F079
:1023B00051F81020009001208DF8040000208DF8C5
:1023C000060002208DF8050069462048FFF78AFEC6
:1023D00010211E48FFF7F1FE2020009001208DF80B
:1023E000040000208DF8060002208DF805006946E3
:1023F0001648FFF777FE20211448FFF7DEFE202065
:10240000009001208DF8040000208DF806000220C5
:102410008DF8050069460E48FFF764FE20210C4840
:10242000FFF7CBFE0220009001208DF80400002071
:102430008DF8060002208DF8050069460448FFF774
:1024400051FE02210248FFF7B8FE1CBD0000024009
:102450000008024029B1064A12680243044B1A6080
:1024600004E0034A12688243014B1A60704700007F
:102470003038024029B1064A12680243044B1A6000
:1024800004E0034A12688243014B1A60704700005F
:102490004038024029B1064A12680243044B1A60D0
:1024A00004E0034A12688243014B1A60704700003F
:1024B0002038024029B1064A12680243044B1A60D0
:1024C00004E0034A12688243014B1A60704700001F
:1024D0004438024029B1064A12680243044B1A608C
:1024E00004E0034A12688243014B1A6070470000FF
:1024F00024380240F0B500210022002402250026E5
:102500000223324F3F6807F00C0121B1042905D0A6
:10251000082937D105E02E4F076036E02D4F0760C0
:1025200033E02A4F3F1F3F68C7F38056274F3F1FB6
:102530003F6807F03F036EB1264FB7FBF3F7DFF8B4
:102540008CC0ACF1040CDCF800C0CCF3881C07FB99
:102550000CF40CE01E4FB7FBF3F7DFF870C0ACF1E2
:10256000040CDCF800C0CCF3881C07FB0CF4174FFC
:102570003F1F3F68C7F301477F1C7D00B4FBF5F7A1
:10258000076002E0124F076000BF00BF0F4F3F68B7
:1025900007F0F0010909104F7A5C0768D7404760DF
:1025A0000A4F3F6807F4E051890A0B4F7A5C47688D
:1025B000D7408760054F3F6807F46041490B064FDD
:1025C0007A5C4768D740C760F0BD00000838024019
:1025D0000024F400001BB7000000002010B5FE49E5
:1025E000488840F294634FF4B6724FF4806101F072
:1025F000C3FCFA4880ED000AF749088840F294636A
:102600004FF4B6724FF4806101F0B6FCF44880EDEF
:10261000000AF1498988480040F628534FF4367281
:102620004FF4006101F022FDEE4880ED000A00BF8A
:10263000EA4890ED000AEC4880ED110AE84890ED78
:10264000000AE94880ED120AE64890ED000AE648E3
:1026500080ED130A00BFE048007A012876D1DE48F9
:10266000C088B0F5966F05DD9FEDE00ADE4880ED8D
:10267000230A0FE0D848C088B0F5487F05DA9FEDFF
:10268000DC0AD94880ED230A04E09FEDDA0AD64837
:1026900080ED230AD0484089B0F5806F12DAD64821
:1026A0000068662805DAD4480068401CD2490860F2
:1026B00002E06620D0490860CF49098888B202F05C
:1026C00033F924E0C4484089B0F5806F12DDCA4870
:1026D0000068002805DDC8480068401EC64908603B
:1026E00002E00020C4490860C349098888B202F0AA
:1026F0001BF90CE0B8484089B0F5806F07D1BE489F
:102700000068BD490860098888B202F00DF9B24836
:10271000407A02280CD1B9480068602805DAB74829
:102720000068C01CB549086002E06020B349086039
:10273000A948407A01280ED1B0480068212806DD5A
:10274000AE480068C01EAD4908600CE010E02120D2
:10275000AA49086007E0A048407A032803D1A748A7
:102760000068A6490860A549098888B202F036F9D0
:102770009948007A02287DD19748407A03280FD1E2
:1027800000219F4800F0E2FF00219D4800F0EAFF91
:1027900000219B4800F0E8FF0021994800F0F0FF7D
:1027A0008D48407A012811D14FF47A71944800F095
:1027B000CDFF0A21924800F0D5FF4FF47A7190487E
:1027C00000F0D2FF00218E4800F0DAFF8248407A04
:1027D000022811D10A218A4800F0B8FF4FF47A711B
:1027E000874800F0BFFF0021854800F0BDFF4FF48F
:1027F0007A71834800F0C4FF77484089B0F5806F54
:102800000FD100217F4800F0AFFF00217D4800F08C
:10281000B7FF10217C48FFF7D2FC20217A48FFF750
:10282000CEFC6D484089B0F5806F10DA4FF47A71B4
:10283000744800F099FF0021724800F0A1FF1021B8
:102840007148FFF7BAFC20216F48FFF7B8FC6248D7
:102850004089B0F5806F12DD00216A4800F084FFE6
:102860004FF47A71674800F08BFF10216648FFF73C
:10287000A6FC00E034E020216348FFF79EFC5648A8
:10288000C088B0F5836F08DD4FF47A705F49086047
:102890006FF0C7005E49086010E04F48C088B0F58F
:1028A0007A7F06DA5B4859490860C82058490860B1
:1028B00004E00020554908605549086000BF5348AE
:1028C00001685548C16351480068534948625048FF
:1028D00001685248C1634E4800685049486200BFD1
:1028E0003D48007A032875D13B48407A032804D13B
:1028F0009FED400A3C4880ED170A3748407A01288E
:1029000004D19FED470A384880ED170A3248407AD3
:10291000022804D19FED430A334880ED170A2E4860
:102920004089B0F5806F17DA41F658303E490860AB
:1029300000BF084601683D48C1633B4800683B4909
:1029400048623948006841423948C16336480068E6
:1029500040423749486232E01F484089B0F5806FF5
:1029600016DD34483049086000BF084601682F482A
:10297000C1632D4800682D4948622B4800684142D8
:102980002B48C1632848006840422949486216E044
:1029900000202549086000BF084601682348C1633C
:1029A00021480068214948621F4800684142204888
:1029B000C1631D48006840421D49486200BF064887
:1029C000C088B0F5836F47DD1A481749086000BF1B
:1029D000084631E05BE000003C01002034000020AC
:1029E000380000203C000020580100200000FA447C
:1029F0000080BBC4000000005C00002060000020DC
:102A0000000C004000080040000002404C00002084
:102A10005000002018FCFFFFB8090020440A0020E5
:102A200000803B4500803BC544000020A0080020FA
:102A30002C090020A8E4FFFF01681548C163154870
:102A4000006813494862134801681348C16311487C
:102A50000068114948621AE01048C088B0F57A7FD2
:102A600015DA41F658300B49086000BF0846016886
:102A70000748C1630748006805494862054801687E
:102A80000548C163034800680349486200BF10BDA0
:102A9000A0080020440000202C0900203C01002058
:102AA00010B55048D0ED131AB0EE611AD0ED121ADD
:102AB000F0EE610AD0ED111AB0EE610A01F082FB6E
:102AC0004848D0ED170AB0EE600A01F0BDFC464858
:102AD00090ED000AB8EEC00A01F048FB4348D0ED83
:102AE0001A1AB0EE611AD0ED191AF0EE610AD0EDA3
:102AF000181AB0EE610A01F003F93C48D0ED1D1A36
:102B0000B0EE611AD0ED1C1AF0EE610AD0ED1B1A7E
:102B1000B0EE610A02F092F83448D0ED231AB0EE1C
:102B2000611AD0ED221AF0EE610AD0ED211AB0EE52
:102B3000610A02F0BDFB2D48D0ED1D1AB0EE611AFE
:102B4000D0ED1C1AF0EE610AD0ED1B1AB0EE610A4E
:102B500002F03EF8234890ED231AB1EE411AF0EE50
:102B6000410A90ED231AB0EE410A01F053FC1F48D0
:102B7000D0ED051AB0EE611AD0ED041AF0EE610A3C
:102B8000D0ED031AB0EE610A02F07CF81748D0EDE0
:102B9000111AB0EE611AD0ED101AF0EE610AD0ED04
:102BA0000F1AB0EE610A02F0F5F81048D0ED171ACE
:102BB000B0EE611AD0ED161AF0EE610AD0ED151ADA
:102BC000B0EE610A02F0BAF801F0F0FD01F05AFE31
:102BD00001F032FE01F092FE01F0C2FD01F068FE4C
:102BE00010BD000058010020480000200C02002009
:102BF0000CB50020019000904148006840F48030FE
:102C00003F49086000BF3E48006800F40030009073
:102C10000198401C0190009818B90198B0F5A04F98
:102C2000F1D13748006800F4003010B10120009065
:102C300001E0002000900098012860D13048403029
:102C4000006840F080502E49403108602D480068EF
:102C500040F440402B490860294808300068284962
:102C6000083108600846006840F4004008600846E3
:102C7000006840F4A05008602348091F0860081F3E
:102C8000006840F08070091F086000BF1C480068A1
:102C900000F000700028F9D01A48006840F4803035
:102CA0001849086000BF1748406800F480300028C9
:102CB000F9D01448006840F400301249086000BFA1
:102CC0001048406800F400300028F9D040F2057048
:102CD0000E4908600A480830006820F003000849DF
:102CE000083108600846006840F00200086000BF34
:102CF00003480830006800F00C000828F8D10CBD2B
:102D000000380240007000400C5A4007003C02406E
:102D1000F0B504460D4616461F461448006840F0BC
:102D200001001249086000201049083108600F486E
:102D300000680F4908400D4908600E48091D0860E9
:102D4000081F006820F48020091F08600020074940
:102D50000C3108603B4632462946204600F00CF80C
:102D600000210846FFF7CAFAF0BD00000038024013
:102D7000FFFFF6FE10300024F0B504460D4600219A
:102D800000203D4E366846F480363B4F3E6001E001
:102D90004E1CB1B2384E366806F400361EB941F604
:102DA000FF76B142F4DB41F6FF76B14201D101205A
:102DB00060E0314E4036366846F080562E4F403740
:102DC0003E602E4E366846F440462C4F3E602A4EFA
:102DD0000836366846F41446274F08373E60264EBC
:102DE000366826F08076244F3E6045EA8416012737
:102DF000C7EB520746EA074646EA036646F48006F2
:102E00001D4F3F1D3E603E1F366846F080763F1FD7
:102E10003E6000BF184E366806F00076002EF9D0EE
:102E2000174E366846F48076154F3E603E4636684B
:102E300046F400763E603E46366846F480663E6064
:102E40003E46366846F005063E600B4E083636684C
:102E500026F00306084F08373E603E46366846F0C7
:102E600002063E6000BF044E0836366806F00C06C7
:102E7000082EF8D1F0BD000000380240007000407C
:102E8000003C024010B51548006840F4700013493A
:102E900008601348006840F00100114908600020F4
:102EA0000F49083108600E4800680E4908400C4977
:102EB00008600D48091D0860081F006820F4802084
:102EC000091F0860002006490C310860FFF790FEDA
:102ED0004FF0006001498039086010BD88ED00E0C6
:102EE00000380240FFFFF6FE1030002410B501212B
:102EF000880700F009F9012810D18007008800F048
:102F00001000102805D108480068401E06490860D6
:102F100004E005480068401C034908600121880757
:102F200000F0D4F810BD00000401002010B501210C
:102F3000254800F0E9F8012841D124480068401CE8
:102F400022490860FFF74AFB20480068072190FBF0
:102F5000F1F201FB120008B9FFF7A2FD1B4800685F
:102F60001F2190FBF1F201FB120008B9FEF7ECFE05
:102F7000164800684FF4FA7190FBF1F201FB120061
:102F800050B91348006808B9012000E0002010493A
:102F9000086000200D4908600C490868C11700EB63
:102FA00091718910A0EB810109B9FFF70BF907486E
:102FB0000068B0F57A7F02DB012004490860012136
:102FC000014800F083F810BD0004004028000020F4
:102FD000880243427FB505460C4601210220FFF7D7
:102FE00049FA0295ADF804400020ADF80600ADF8AE
:102FF0000C0001A90B4800F055FC012211460948BC
:1030000000F093F81D208DF8000000208DF80100DD
:1030100001208DF802008DF803006846FFF77AF969
:103020007FBD00000004004010B51D48006850B985
:1030300001211C4800F068F8012804D11A480088D2
:10304000401C194908801648006801280AD101214E
:10305000144800F059F8012804D113480088401E94
:10306000114908801148D0F88400401C0F49C1F86C
:1030700084000846D0F884000D49D1F888108842B1
:1030800008D100200949C1F8840000220121054827
:1030900000F04BF80121034800F018F810BD0000C3
:1030A000540000200008004058000020880700203D
:1030B0007006002021B1028842F08002028004E004
:1030C00002884FF67F731A4002807047CA4302821B
:1030D000704721B1028842F00102028004E00288B8
:1030E0004FF6FE731A400280704731B1B0F84420A9
:1030F00042F40042A0F8442005E0B0F84420C2F3B6
:103100000E02A0F84420704730B50246002000238C
:103110000024158A05EA0103958905EA010413B123
:103120000CB1012000E0002030BD1AB183890B43AF
:10313000838102E083898B438381704770B50024CB
:1031400000220023058C4FF6FE7635400584028C64
:103150008388048B4FF68F752C40B51E2C400D884C
:103160002C43751E2A408D892A434D882A43104DD1
:10317000A84202D00F4DA84213D14FF6F7752A404E
:10318000CD892A434FF6FB752A408D882A434FF696
:10319000FF652B404FF6FF552B400D8A2B434D8A80
:1031A0002B43838004838D684563028470BD0000D7
:1031B00000000140000401400A460021018B4FF647
:1031C000F7731940114301837047000070B5002464
:1031D00000220023058C4FF6EF7635400584028CE3
:1031E0008388048B48F6FF752C404FF6FF452C4032
:1031F0000D884FF6FF7606EA05252C434FF6DF755E
:103200002A408D8906EA05152A434D8806EA0515E8
:103210002A43154DA84202D0144DA8421DD14FF6A5
:103220007F752A40CD894FF6FF7606EA05152A43B9
:103230004FF6BF752A408D8806EA05152A434FF6DA
:10324000FF352B404FF2FF752B400D8A06EA8505AE
:103250002B434D8A06EA85052B43838004838D68C2
:103260008563028470BD000000000140000401403D
:103270000A460021018B4FF2FF7319404FF6FF738E
:1032800003EA0223194301837047000070B500244C
:1032900000220023058C4FF6FF6635400584028C22
:1032A0008388848B4FF68F752C404FF6FC752C402D
:1032B0000D882C434FF6FF552A408D894FF6FF7637
:1032C00006EA05252A434D8806EA05252A43154DB9
:1032D000A84202D0144DA8421DD14FF2FF752A40DA
:1032E000CD894FF6FF7606EA05252A434FF6FF35CE
:1032F0002A408D8806EA05252A434EF6FF752B40A5
:103300004DF6FF752B400D8A06EA05152B434D8AB5
:1033100006EA05152B43838084838D68C563028488
:1033200070BD000000000140000401400A46002179
:10333000818B4FF6F773194011438183704700006A
:1033400070B5002200230024058C4EF6FF76354030
:103350000584038C8488828B48F6FF752A404FF6DB
:10336000FF452A400D884FF6FF7606EA05252A43D9
:103370004DF6FF752B408D8906EA05352B434D88A8
:1033800006EA05352B430A4DA84202D0094DA84252
:1033900008D14BF6FF752C400D8A4FF6FF7606EAF2
:1033A00085152C43848082838D680564038470BDF9
:1033B00000000140000401400A460021818B4FF2C9
:1033C000FF7319404FF6FF7303EA02231943818309
:1033D000704710B500F080F800F0EEF800F004F847
:1033E00000F03EF910BD000000B58BB001210420B3
:1033F000FFF740F801210820FFF72CF802220E21E8
:103400003348FEF7B7FE02220F213148FEF7B2FE25
:103410004FF48040099002208DF8280000208DF89C
:103420002A0002208DF8290000208DF82B0009A920
:103430002748FEF757FE4FF40040099002208DF810
:10344000280000208DF82A0002208DF82900002095
:103450008DF82B0009A91E48FEF744FE40F2E73024
:1034600007905920ADF818000020ADF82000ADF805
:103470001A0006A9174800F015FA6020ADF80400FC
:103480000120ADF806004FF47A7003900020ADF8EB
:10349000100001A90F48FFF7F9FE08210D48FFF7BA
:1034A00045FF01A90B48FFF74BFF08210948FFF72B
:1034B00083FF01210748FFF7FDFD01210548FFF7C4
:1034C00014FE01210348FFF704FE0BB000BD00000D
:1034D000000C02400008004000B58BB0012108201C
:1034E000FEF7C8FF01218020FEF7B4FF02220A2167
:1034F0002F48FEF73FFE02220B212D48FEF73AFE31
:1035000002220C212A48FEF735FE4FF4E0500990C4
:1035100002208DF8280000208DF82A0002208DF866
:10352000290000208DF82B0009A92148FEF7DAFDBB
:1035300040F2E7300790B320ADF818000020ADF856
:103540002000ADF81A0006A91A4800F0ABF9602077
:10355000ADF804000120ADF8060000200390ADF89E
:10356000100001A91348FFF7E9FD08211148FFF7F2
:1035700023FE01A90F48FFF729FE08210D48FFF798
:1035800077FE01A90B48FFF781FE08210948FFF7E4
:10359000CDFE01210748FFF78DFD01210548FFF70A
:1035A000A4FD01210348FFF794FD0BB000BD00000E
:1035B000001C0240000C004000B58BB00121082027
:1035C000FEF758FF01210802FEF744FF0222002106
:1035D0002148FEF7CFFD0120099002208DF8280038
:1035E00000208DF82A0002208DF8290000208DF897
:1035F0002B0009A91848FEF775FD40F2E730079047
:10360000B320ADF818000020ADF82000ADF81A0086
:1036100006A9124800F046F96020ADF80400012028
:10362000ADF8060000200390ADF8100001A90B488A
:10363000FFF786FE08210948FFF7BEFE0121074873
:10364000FFF738FD01210548FFF74FFD0121034831
:10365000FFF73FFD0BB000BD00200240000C004012
:1036600000B58BB001210220FEF724FF01210802E2
:10367000FEF7F0FE032207213248FEF77BFD03220E
:1036800005213048FEF776FD8020099002208DF854
:10369000280000208DF82A0002208DF82900002043
:1036A0008DF82B0009A92748FEF71CFD4FF4807008
:1036B000099002208DF8280000208DF82A000220B1
:1036C0008DF8290000208DF82B0009A91D48FEF770
:1036D00009FD40F2E7300790B320ADF81800002054
:1036E000ADF82000ADF81A0006A9174800F0DAF886
:1036F0006020ADF804000120ADF806004FF47A70A8
:1037000003900020ADF8100001A90F48FFF7BEFD9F
:1037100008210D48FFF70AFE01A90B48FFF710FE2C
:1037200008210948FFF748FE01210748FFF7C2FCBE
:1037300001210548FFF7D9FC01210348FFF7C9FC27
:103740000BB000BD0020024000040140034A11609C
:103750004163426B024B1A6070470000100000206A
:103760001400002081637047034A1160C163C26B7B
:10377000024B1A6070470000180000201C00002057
:10378000034A11600164026C024B1A60704700002A
:10379000200000202400002000B58BB00121084645
:1037A000FEF768FE01210846FEF764FE01220021B3
:1037B0003B48FEF7DFFC012211463948FEF7DAFCF0
:1037C000012202213648FEF7D5FC012203213448AC
:1037D000FEF7D0FC0F20099002208DF82800002071
:1037E0008DF82A0002208DF8290000208DF82B008A
:1037F00009A92B48FEF776FC40F2E730079040F22B
:103800008F60ADF818000020ADF82000ADF81A0068
:1038100006A94FF0804000F045F86020ADF80400A4
:103820000120ADF80600182003900020ADF810002C
:1038300001A94FF08040FFF781FC0821C806FFF77F
:10384000BBFC01A94FF08040FFF7C0FC0821C8066F
:10385000FFF70EFD01A94FF08040FFF717FD08218B
:10386000C806FFF763FD01A94FF08040FFF768FD30
:103870000821C806FFF7A0FD01218807FFF71AFC01
:1038800001218807FFF731FC01218807FFF721FCA0
:10389000002001F049F8602001F0A0F80BB000BD55
:1038A0000000024000220288184B98420ED0184BAC
:1038B00098420BD0B0F1804F08D0164B984205D0FB
:1038C000154B984202D0154B984204D14FF68F7396
:1038D0001A404B881A43124B984207D0114B98421A
:1038E00004D04FF6FF431A400B891A4302804B68FD
:1038F000C3620B880385054B984202D0044B984263
:1039000001D18B7A03860123838270470000014036
:10391000000401400004004000080040000C00408A
:10392000001000400014004010B540F224410F4840
:1039300000F0BFF8C8B10D4800880D4908600B4879
:103940008088086000210B48FEF7C4F80948FEF79C
:1039500079F9C0F1C80006490860C8210648FCF79B
:1039600048FC01210348FEF7B5F810BD00500040A7
:103970001C01002010600240EC0A002021B1828965
:1039800042F40052828104E082894DF6FF731A40AE
:10399000828170471AB1838A0B43838202E0838A53
:1039A0008B4383827047000010B50446324884423E
:1039B00008D101211020FEF78DFD00211020FEF717
:1039C00089FD57E02D48844209D101214804FEF7C2
:1039D00061FD00214FF40030FEF75CFD4AE028480D
:1039E000844209D101218804FEF754FD00214FF4DF
:1039F0008020FEF74FFD3DE02248844209D101219D
:103A0000C804FEF747FD00214FF40020FEF742FDF9
:103A100030E01D48844209D101210805FEF73AFD36
:103A200000214FF48010FEF735FD23E01748844253
:103A300008D101212020FEF74DFD00212020FEF7B6
:103A400049FD17E01248844209D101218807FEF799
:103A500021FD00214FF08040FEF71CFD0AE00D48DB
:103A6000844207D101214005FEF714FD00216005C5
:103A7000FEF710FD10BD00000010014000440040A2
:103A800000480040004C004000500040001401403D
:103A900000780040007C004002460020B1F5007F25
:103AA00000D100BF13880B400BB1012000E00020C3
:103AB000704770B50246002400230025002040F620
:103AC0006A16B14200D100BFC1F3421501F01F03D5
:103AD000012606FA03F3012D02D19689334006E050
:103AE000022D02D1168A334001E0968A33400C122F
:103AF000012606FA04F41688344013B10CB10120F3
:103B000000E0002070BDF0B503460024002600252B
:103B1000002040F66A17B94200D100BF1846C1F331
:103B2000421401F01F06012707FA06F5012C01D106
:103B30000C3004E0022C01D1103000E014301AB136
:103B400007682F43076002E00768AF430760F0BDD6
:103B50002DE9FF4705460E460024A14600BFA046BA
:103B6000B08900B100BF2C8A24F44054F08804438B
:103B70002C82AC8941F20C608443B08831890843BF
:103B8000718908430443AC81AC8A24F44074B08941
:103B90000443AC826846FEF7ADFC2048854202D063
:103BA0001F48854202D1DDF80C9001E0DDF8089055
:103BB000A88900F4004040B109EBC90000EB0910EE
:103BC00031684900B0FBF1F707E009EBC90000EBF1
:103BD000091031688900B0FBF1F76420B7FBF0F001
:103BE00004012009642101FB1078A88900F4004039
:103BF00040B1322000EBC800B0FBF1F000F007004C
:103C0000044308E0322000EB08106421B0FBF1F01F
:103C100000F00F0004432C81BDE8FF870010014035
:103C200000140140C1F308028280704700BFFEE724
:103C300070B504460D4629462046FFF7F3FF00BF46
:103C400080212046FFF728FF0028F9D070BD002111
:103C5000C160016101604160816041618161C16158
:103C60000162704700B51248FFF7F1FF1148FFF7F6
:103C7000EEFF1148FFF7EBFF1048FFF7E8FF104891
:103C8000FFF7E5FF0F48FFF7E2FF0F48FFF7DFFF01
:103C90000E48FFF7DCFF0E48FFF7D9FF0D48FFF78E
:103CA000D6FF0D48FFF7D3FF0C48FFF7D0FF00BD4C
:103CB000CC02002058030020E40300207004002000
:103CC000FC04002088050020140600204408002081
:103CD000D0080020E80900205C090020740A0020B8
:103CE00002E008C8121F08C1002AFAD170477047C5
:103CF000002001E001C1121F002AFBD17047000023
:103D000000B5B0EE402AF0EE602AB0EE413A11481C
:103D100090ED040ABDEEC00A80ED180AC169816702
:103D200005200D490870B0EE431AF0EE620AB0EEBD
:103D3000420A0848543000F011F800200649087083
:103D400000BF0448416FC163406F0249486200BF31
:103D500000BD0000140800207C000020426A0169B8
:103D6000891A01608149097806297CD2DFE801F0CF
:103D7000FA65340398C9D0ED001AF8EEE11A61EE45
:103D8000801AFDEEE11AC0ED051AD0E90012891A79
:103D900001EE901AF8EEE11A61EE811AFDEEE11AD9
:103DA000C0ED071A01684160C2694169114440F6DB
:103DB000B832914202DD114601620CE0C2694169EC
:103DC00011446B4A914202DA1146016203E0C26972
:103DD000416911440162C6E0D0ED001AF8EEE11A23
:103DE00061EE801AFDEEE11AC0ED051AD0E900126D
:103DF000891A01EE901AF8EEE11A61EE811AFDEED1
:103E0000E11AC0ED071A01684160C26941691144B5
:103E100047F23052914202DD114601620CE0C26964
:103E200041691144534A914202DA1146016203E0AA
:103E3000C26941691144016295E0D0ED001AF8EEC3
:103E4000E11A61EE801AFDEEE11AC0ED051AD0E923
:103E50000012891A01EE901AF8EEE11A61EE811A49
:103E6000FDEEE11A00E07DE0C0ED071A0168416057
:103E7000C2694169114447F23052914202DD114654
:103E800001620CE0C269416911443A4A914202DA86
:103E90001146016203E0C26941691144016262E0B6
:103EA000D0ED001AF8EEE11A61EE801AFDEEE11A8B
:103EB000C0ED051AD0E90012891A01EE901AF8EE49
:103EC000E11A61EE811AFDEEE11AC0ED071A0168F0
:103ED0004160C2694169114447F23052914202DDAA
:103EE000114601620CE0C26941691144214A9142C4
:103EF00002DA1146016203E0C269416911440162BC
:103F000031E0D0ED001AF8EEE11A61EE801AFDEE14
:103F1000E11AC0ED051AD0E90012891A01EE901AD3
:103F2000F8EEE11A61EE811AFDEEE11AC0ED071A12
:103F300001684160C2694169114447F230529142BF
:103F400002DD114601620CE0C26941691144094A6F
:103F5000914202DA1146016203E0C26941691144EB
:103F6000016200E000BF00BF704700007C0000203D
:103F700048F4FFFFD08AFFFF2DE9F0412DED0E8BB5
:103F800005460C4616461F469FED340AB0EE408AA1
:103F9000A01C85422ADB32480068FCF713FB41EC89
:103FA0001A0BA11C781AFCF7B7FA41EC1C0BA11CE8
:103FB000681AFCF7B1FA41EC1E0B9FED2A0B53EC8B
:103FC000102BFCF7C8F941EC1D0B53EC1C2BFCF734
:103FD00034FA41EC1B0B53EC1A2BFCF7BCF941EC07
:103FE000190BFCF733FB08EE100A31E0A01EA842C3
:103FF0002ADB1B480068FCF7E5FA41EC1A0BA11E0E
:10400000881BFCF789FA41EC1C0BA11E681AFCF70F
:1040100083FA41EC1E0B9FED130B53EC102BFCF7B6
:104020009AF941EC1D0B53EC1C2BFCF706FA41EC02
:104030001B0B53EC1A2BFCF78EF941EC190BFCF718
:1040400005FB08EE100A03E09FED040AB0EE408A7B
:10405000B0EE480ABDEC0E8BBDE8F0810000000018
:10406000AC000020000000000000F03F2DE9F0410E
:104070002DED0E8B05460C4616461F469FED360A63
:10408000B0EE408AA01C85422ADB34480068FCF769
:1040900099FA41EC1A0BA11C781AFCF73DFA41EC95
:1040A0001C0BA11C681AFCF737FA41EC1E0B9FEDA4
:1040B0002C0B53EC102BFCF74EF941EC1D0B53EC81
:1040C0001C2BFCF7BAF941EC1B0B53EC1A2BFCF739
:1040D00042F941EC190BFCF7B9FA08EE100A31E08D
:1040E000A01EA8422ADB1D480068FCF76BFA41ECD1
:1040F0001A0BA11E881BFCF70FFA41EC1C0BA11E2A
:10410000681AFCF709FA41EC1E0B9FED150B53ECF6
:10411000102BFCF720F941EC1D0B53EC1C2BFCF78A
:104120008CF941EC1B0B53EC1A2BFCF714F941EC06
:10413000190BFCF78BFA08EE100A03E09FED060A54
:10414000B0EE408A084880ED008AB0EE480ABDEC27
:104150000E8BBDE8F081000000000000B0000020E0
:10416000000000000000F03F400000209FED101A0A
:10417000C0EE010A9FED0F1A60EE810A9FED0E1A44
:1041800060EE810A0D48C0ED000A00BFD0ED000AC4
:10419000FDEEE00A0A48C0ED190A0848D0ED000A11
:1041A000FDEEE00A0648C0ED030A00BF70470000BC
:1041B0000000B44300F8FF450000104268000020F2
:1041C0001408002070B52DED0C8BB0EE408AF0EE97
:1041D000608AB0EE419A00205F490880B0EE491A2B
:1041E000F0EE680AB0EE480AFCF74CFC5B4D6B6AD7
:1041F0005B4D6A6A5B4D696A5B4D686A00F0D8F88E
:1042000004465A48006884427EDD2046FCF784F963
:1042100041EC1B0B2946496A544A126801FB02F023
:10422000FCF77AF941EC1D0B9FED510B53EC102B71
:10423000FCF791F841EC1C0B53EC1B2BFCF7FDF841
:1042400041EC1A0BFCF786F9294648622046FCF738
:1042500063F941EC1B0B4349496A444A126801FB6C
:1042600002F0FCF759F941EC1D0B9FED410B53ECAB
:10427000102BFCF770F841EC1C0B53EC1B2BFCF7DC
:10428000DCF841EC1A0BFCF765F936494862204628
:10429000FCF742F941EC1B0B3149496A334A126879
:1042A00001FB02F0FCF738F941EC1D0B9FED300BE0
:1042B00053EC102BFCF74FF841EC1C0B53EC1B2B71
:1042C000FCF7BBF841EC1A0BFCF744F924494862AF
:1042D0002046FCF721F941EC1B0B2049496A234A8F
:1042E000126801FB02F0FCF717F941EC1D0B9FED82
:1042F000200B53EC102BFCF72EF841EC1C0B53EC6D
:104300001B2BFCF79AF800E005E041EC1A0BFCF7D8
:1043100021F91249486200BF1348416AC16311483C
:10432000416AC1630E48416AC1630C48416AC16376
:104330000D48406A0C4948620A48406A0949486287
:104340000748406A064948620448406A034948628F
:1043500000BFBDEC0C8B70BD640000204004002049
:10436000B4030020280300209C020020A8000020A5
:10437000000000000000F03F4FF0E021096921F04B
:1043800004014FF0E0221161C21700EB5272C2F338
:10439000C702054B1A704FF47A714143C1F3CF0144
:1043A000024A118070470000EC000020EE0000205F
:1043B00070B504460020251E01DB2E4600E06E424B
:1043C00030460D1E01DB2E4600E06E42864205DDC2
:1043D0000D1E01DB2E4600E06E423046151E01DB4D
:1043E0002E4600E06E42864205DD151E01DB2E469C
:1043F00000E06E4230461D1E01DB2E4600E06E429C
:10440000864205DD1D1E01DB2E4600E06E42304671
:1044100070BD000000BFBDEEC01A094880ED0F1A44
:10442000BDEEC01A80ED091ABDEEE01A054880ED18
:104430000F1ABDEEE01A80ED091A00BF70470000A8
:1044400058050020E405002000BFFDEEC00A044826
:10445000C0ED0F0AFDEEC00AC0ED090A00BF7047AB
:10446000CC0400201CB501210220FDF7F3FF04203D
:10447000009000208DF8040003208DF80500022034
:104480008DF8070069460248FDF72CFE1CBD0000B0
:104490000004024000200D4909680D4A11701146C0
:1044A0000978012910D10B4909781278914205D178
:1044B00007490978074A1170012006E00449097884
:1044C000044A1170002000E000207047088240423A
:1044D00024010020250100201CB501214020FDF70A
:1044E000B9FF4FF4FF70009001208DF80400002008
:1044F0008DF8060001208DF8070003208DF80500D7
:1045000069460448FDF7EEFD4FF4FF710148FDF7E1
:1045100056FE1CBD001802401CB501210420FDF709
:1045200099FF0420009000208DF8040003208DF8EE
:10453000050000208DF8070069460248FDF7D2FD0E
:104540001CBD000000080240FCF7D4F900BFFEE7E4
:104550000020314908609FED310A084680ED040AC9
:104560009FED2E0A80ED080A002048608862C8622C
:104570002B4908609FED290A084680ED040A0020B7
:1045800048609FED260A084680ED080A00208862F0
:10459000C862244908609FED210A084680ED040A9C
:1045A000002048609FED1D0A084680ED080A0020A3
:1045B0008862C8621C4908609FED180A084680EDB1
:1045C000040A002048609FED150A084680ED080A9D
:1045D00000208862C862154908609FED100A0846ED
:1045E00080ED040A002048609FED0C0A084680ED2B
:1045F000080A00208862C8620D49A1F89C000021C9
:104600000B48A0F89E1000200949A1F8A000002145
:104610000748A0F8A21070479C020020000000008C
:1046200028030020B40300204004002014080020C8
:104630005801002010B53C210148FDF7BEFD10BD1A
:10464000001C02401FB501218020FDF703FF3C2024
:10465000029001208DF80C0000208DF80E00012042
:104660008DF80F0003208DF80D0002A91148FDF709
:1046700039FD3C210F48FDF7A0FD01214020FDF749
:10468000E9FE4FF40050009001208DF80400002056
:104690008DF8060001208DF8070003208DF8050035
:1046A00069460548FDF71EFD4FF400510248FDF72D
:1046B00086FD1FBD001C02400018024010B590EDA1
:1046C000040ABDEEC00A80ED050A00EE101AB8EE2D
:1046D000400A80ED040A00EE102AB8EEC00A80ED10
:1046E000080A836244681CB901604468641C446021
:1046F000D0ED040A90ED050AB8EEC00A30EEC00A0B
:10470000DFED150AB4EEE00AF1EE10FA03DD84697C
:10471000641E846111E0D0ED040A90ED050AB8EE44
:10472000C00A30EEC00ADFED0D0AB4EEE00AF1EE89
:1047300010FA02D28469641C84618469640300EE07
:10474000104AB8EEC00AD0ED040A30EE200ABDEEE1
:10475000C00A80ED070A10BD00008045000080C53A
:104760001CB51048006D0F49C8620F48006D0E4916
:10477000C8620C48808D000A8DF80000094890F846
:104780002C008DF801000846808D000A8DF802008B
:10479000084690F82C008DF803006846FCF77EFD73
:1047A0001CBD0000A00800202C0900201CB51E48DC
:1047B000006D1D49C8621D48006D1C49C8621C4837
:1047C000006D1B49C8621B48006D1A49C862164833
:1047D000808D000A8DF80000134890F82C008DF8A9
:1047E00001001248808D000A8DF802000F4890F8F1
:1047F0002C008DF803000E48808D000A8DF804000F
:104800000B4890F82C008DF805000846808D000AB2
:104810008DF80600084690F82C008DF807006846D1
:10482000FCF714FB1CBD00009C02002028030020A4
:10483000B4030020400400201CB51048006D0F494F
:10484000C8620F48006D0E49C8620C48808D000A8E
:104850008DF80200094890F82C008DF803000846F6
:10486000808D000A8DF80400084690F82C008DF821
:1048700005006846FCF722FB1CBD0000580500201F
:10488000E40500201CB50948006D0849C8620846C7
:10489000808D000A8DF80000084690F82C008DF8F5
:1048A00001006846FCF752FB1CBD0000CC04002050
:1048B0001CB51048006D0F49C8620F48006D0E49C5
:1048C000C8620C48808D000A8DF80400094890F8F1
:1048D0002C008DF805000846808D000A8DF8060032
:1048E000084690F82C008DF807006846FCF70EFD8E
:1048F0001CBD0000B8090020440A00201CB509486E
:10490000006D0849C8620846808D000A8DF80000D5
:10491000084690F82C008DF801006846FCF72EFD43
:104920001CBD00001408002010B52DED0E8B0446B0
:104930002046FBF702FE41EC1E0B9FED1C0B53ECD7
:10494000102BFBF77AFD41EC1D0B9FED1A0B53EC7E
:10495000102BFBF700FD41EC1C0B9FED180B53ECEB
:10496000102BFBF751FC41EC1B0B9FED160B53EC8E
:10497000102BFBF762FD41EC1A0B9FED140B53EC6F
:10498000102BFBF7E8FC41EC190B9FED120B53ECDD
:10499000102BFBF7DAFC41EC180BFBF7FAFD84B2A5
:1049A000204600F075F8BDEC0E8B10BD0000000035
:1049B0000080664000000000000000400000000091
:1049C0000000E03F00000000000034400000000054
:1049D00000408F40000000000000F03F10B52DEDBA
:1049E0000E8B04462046FBF7A8FD41EC1E0B9FED05
:1049F0001C0B53EC102BFBF720FD41EC1D0B9FED26
:104A00001A0B53EC102BFBF7A6FC41EC1C0B9FED93
:104A1000180B53EC102BFBF7F7FB41EC1B0B9FED36
:104A2000160B53EC102BFBF708FD41EC1A0B9FED16
:104A3000140B53EC102BFBF78EFC41EC190B9FED84
:104A4000120B53EC102BFBF780FC41EC180BFBF71F
:104A5000A0FD84B2204600F06DF8BDEC0E8B10BDB9
:104A600000000000008066400000000000000040E0
:104A7000000000000000E03F0000000000003440A3
:104A80000000000000408F40000000000000F03FE8
:104A900010B52DED048B0446214804802046FBF719
:104AA0004CFD41EC190B9FED1F0B53EC102BFBF74A
:104AB0009DFD02D29FED1B0B04E02046FBF73DFD60
:104AC00041EC100BB0EE408AF0EE608A51EC180B0E
:104AD000FBF75FFD84B22046FBF72FFD41EC190B7D
:104AE0009FED120B53EC102BFBF798FD02D29FEDBC
:104AF0000F0B04E02046FBF720FD41EC100BB0EE5D
:104B0000408AF0EE608A51EC180BFBF742FD84B24C
:104B100021464FF08040FEF733FEBDEC048B10BD04
:104B2000E800002000000000000038400000000005
:104B300000005F4010B52DED048B04462046FBF7C6
:104B4000FCFC41EC190B9FED1E0B53EC102BFBF7FB
:104B50004DFD02D29FED1A0B04E02046FBF7EDFC61
:104B600041EC100BB0EE408AF0EE608A51EC180B6D
:104B7000FBF70FFD84B22046FBF7DFFC41EC190B7D
:104B80009FED110B53EC102BFBF748FD02D29FED6C
:104B90000E0B04E02046FBF7D0FC41EC100BB0EE0E
:104BA000408AF0EE608A51EC180BFBF7F2FC84B2FD
:104BB00021464FF08040FEF7D7FDBDEC048B10BDC1
:104BC00000000000000038400000000000005F40CE
:104BD00000B5B0EE402AF0EE602AB0EE413A14483B
:104BE00090ED080ABDEEC00A80ED100A114890ED64
:104BF000080ABDEEC00A80ED100A06200E490870B2
:104C0000B0EE431AF0EE620AB0EE420A08483030C5
:104C100000F0E4F8B0EE431AF0EE620AB0EE420A99
:104C20000448303000F0DAF800200349087000BD75
:104C3000A00800202C0900207C00002000B5B0EE68
:104C4000402AF0EE602AB0EE413A0C4890ED080A96
:104C5000BDEEC00A80ED100A052009490870B0EECB
:104C6000431AF0EE620AB0EE420A0448303000F017
:104C7000B5F800200249087000BD000014080020AB
:104C80007C00002000B5B0EE402AF0EE602AB0EEC5
:104C9000413A254890ED080ABDEEC00A80ED100AA1
:104CA000224890ED080ABDEEC00A80ED100A2048A7
:104CB00090ED080ABDEEC00A80ED100A1D4890ED87
:104CC000080ABDEEC00A80ED100A01201A490870DA
:104CD000B0EE431AF0EE620AB0EE420A12483030EB
:104CE00000F07CF8B0EE431AF0EE620AB0EE420A31
:104CF0000E48303000F072F8B0EE431AF0EE620A5F
:104D0000B0EE420A0A48303000F068F8B0EE431ABC
:104D1000F0EE620AB0EE420A0648303000F05EF86B
:104D200000200549087000BD9C02002028030020D7
:104D3000B4030020400400207C00002000B5B0EE49
:104D4000402AF0EE602AB0EE413A0F4890ED080A92
:104D5000BDEEC00A80ED100A0C4890ED080ABDEEC9
:104D6000C00A80ED100A042009490870B0EE431A09
:104D7000F0EE620AB0EE420A0448303000F02EF83D
:104D800000200349087000BD58050020E4050020FC
:104D90007C00002000B5B0EE402AF0EE602AB0EEB4
:104DA000413A0C4890ED080ABDEEC00A80ED100AA9
:104DB000032009490870B0EE431AF0EE620AB0EE23
:104DC000420A0448303000F009F800200249087017
:104DD00000BD0000CC0400207C000020D0E90312BC
:104DE000891A0160F949097808297DD2DFE801F0C4
:104DF0007C047C4BB3F7F6F50168002901DB0A4619
:104E000000E04A42B2F5FA7F03DC0268816811448F
:104E1000816041F288328168914202DD11468160F1
:104E200005E0EB4A8168914201DA11468160D0EDDC
:104E3000001AF8EEE11A61EE801AFDEEE11AC0EDFB
:104E4000051AD0ED021AF8EEE11A61EEA01AFDEE95
:104E5000E11AC0ED061AD0E905121144B1F5FA5F66
:104E600003DD4FF4FA5101620CE0D0E90512114460
:104E700011F5FA5F02DAD749016203E0D0E90512C1
:104E8000114401620EE20168002901DB0A4600E0DC
:104E90004A42142A03DC02688168114481608168F7
:104EA000B1F5FA7F03DD4FF4FA71816005E08168A6
:104EB00011F5FA7F01DAC8498160D0ED001AF8EEE9
:104EC000E11A61EE801AFDEEE11AC0ED051AD0ED8F
:104ED000021AF8EEE11A61EEA01AFDEEE11AC0ED39
:104EE000061AD0E9001200E0DBE1891A01EE901AFF
:104EF000F8EEE11A61EE811AFDEEE11AC0ED071A33
:104F0000016841600168002901DB0A4600E04A426D
:104F1000022A02DC002101621CE0D0E905121144E2
:104F2000C269114440F6B832914202DD1146016275
:104F300010E0D0E905121144C2691144A74A914218
:104F400002DA1146016205E0D0E905121144C26996
:104F500011440162A6E10168002901DB0A4600E074
:104F60004A42142A03DC0268816811448160816826
:104F7000B1F5FA7F03DD4FF4FA71816005E08168D5
:104F800011F5FA7F01DA94498160D0ED001AF8EE4C
:104F9000E11A61EE801AFDEEE11AC0ED051AD0EDBE
:104FA000021AF8EEE11A61EEA01AFDEEE11AC0ED68
:104FB000061AD0E90012891A01EE901AF8EEE11AE9
:104FC00061EE811AFDEEE11AC0ED071A0168416039
:104FD0000168002904DB0A4603E0F1E08AE023E0EF
:104FE0004A42022A02DC002101621CE0D0E90512DB
:104FF0001144C269114441F28832914202DD1146E6
:10500000016210E0D0E905121144C2691144704AEE
:10501000914202DA1146016205E0D0E9051211441D
:10502000C269114401623DE10168002901DB0A46C1
:1050300000E04A42142A03DC02688168114481605E
:105040008168B1F5FA7F03DD4FF4FA71816005E004
:10505000816811F5FA7F01DA5F498160D0ED001AAD
:10506000F8EEE11A61EE801AFDEEE11AC0ED051AC4
:10507000D0ED021AF8EEE11A61EEA01AFDEEE11A87
:10508000C0ED061AD0E90012891A01EE901AF8EE66
:10509000E11A61EE811AFDEEE11AC0ED071A01680E
:1050A00041600168002901DB0A4600E04A42022A09
:1050B00002DC002101621CE0D0E905121144C26942
:1050C000114440F6B832914202DD1146016210E00F
:1050D000D0E905121144C2691144404A914202DAF2
:1050E0001146016205E0D0E905121144C26911447C
:1050F0000162D7E00168002901DB0A4600E04A426C
:10510000142A03DC02688168114481608168B1F56A
:10511000FA7F03DD4FF4FA71816005E0816811F5D3
:10512000FA7F01DA2C498160D0ED001AF8EEE11A1D
:1051300061EE801AFDEEE11AC0ED051AD0ED021AFB
:10514000F8EEE11A61EEA01AFDEEE11AC0ED061AC2
:10515000D0E90012891A01EE901AF8EEE11A61EE18
:10516000811AFDEEE11AC0ED071A0168416001687D
:10517000002901DB0A4600E04A42022A02DC002143
:1051800001621CE0D0E905121144C269114441F2E8
:105190008832914202DD1146016210E0D0E9051229
:1051A0001144C26911440A4A914202DA114601626D
:1051B00005E0D0E905121144C2691144016271E0B1
:1051C000016800290CDB0A460BE000007C0000208F
:1051D00078ECFFFFC0E0FFFF0CFEFFFF48F4FFFF8D
:1051E0004A42142A03DC02688168114481608168A4
:1051F000B1F5FA7F03DD4FF4FA71816005E0816853
:1052000011F5FA7F01DA28498160D0ED001AF8EE35
:10521000E11A61EE801AFDEEE11AC0ED051AD0ED3B
:10522000021AF8EEE11A61EEA01AFDEEE11AC0EDE5
:10523000061AD0E90012891A01EE901AF8EEE11A66
:1052400061EE811AFDEEE11AC0ED071A01684160B6
:105250000168002901DB0A4600E04A42022A02DC1A
:10526000002101621CE0D0E905121144C269114419
:1052700041F28832914202DD1146016210E0D0E92C
:1052800005121144C2691144084A914202DA1146DA
:10529000016205E0D0E905121144C26911440162BE
:1052A00000E000BF00BF70470CFEFFFF78ECFFFF7F
:1052B00000B5B0EE402AF0EE602AB0EE413A144854
:1052C00090ED080ABDEEC00A80ED100A114890ED7D
:1052D000080ABDEEC00A80ED100A07200E490870CA
:1052E000B0EE431AF0EE620AB0EE420A08483030DF
:1052F000FFF774FDB0EE431AF0EE620AB0EE420A18
:1053000004483030FFF76AFD00200349087000BDF3
:10531000B8090020440A00207C0000203C5300080B
:105320000000002048010000340800087053000805
:1053300048010020C81A0000F03C0008412D01027D
:105340000304040518060708090237010224600255
:105350001E10297C23E83B28094EA2F1429756E80B
:105360004010026E144A04021B02020609131600C2
:04000005080001AD41
:00000001FF
